{
  "contractName": "organisation",
  "abi": [
    {
      "inputs": [
        {
          "internalType": "uint256",
          "name": "_quorum",
          "type": "uint256"
        },
        {
          "internalType": "uint256",
          "name": "_participationTimeEnd",
          "type": "uint256"
        },
        {
          "internalType": "uint256",
          "name": "_voteTime",
          "type": "uint256"
        }
      ],
      "stateMutability": "nonpayable",
      "type": "constructor"
    },
    {
      "inputs": [],
      "name": "avaliableFund",
      "outputs": [
        {
          "internalType": "uint256",
          "name": "",
          "type": "uint256"
        }
      ],
      "stateMutability": "view",
      "type": "function"
    },
    {
      "inputs": [
        {
          "internalType": "uint256",
          "name": "",
          "type": "uint256"
        }
      ],
      "name": "infoProposals",
      "outputs": [
        {
          "internalType": "uint256",
          "name": "id",
          "type": "uint256"
        },
        {
          "internalType": "string",
          "name": "description",
          "type": "string"
        },
        {
          "internalType": "uint256",
          "name": "amount",
          "type": "uint256"
        },
        {
          "internalType": "address payable",
          "name": "recipient",
          "type": "address"
        },
        {
          "internalType": "uint256",
          "name": "votes",
          "type": "uint256"
        },
        {
          "internalType": "uint256",
          "name": "end",
          "type": "uint256"
        },
        {
          "internalType": "bool",
          "name": "isExecuted",
          "type": "bool"
        }
      ],
      "stateMutability": "view",
      "type": "function"
    },
    {
      "inputs": [
        {
          "internalType": "address",
          "name": "",
          "type": "address"
        },
        {
          "internalType": "uint256",
          "name": "",
          "type": "uint256"
        }
      ],
      "name": "investorVoting",
      "outputs": [
        {
          "internalType": "bool",
          "name": "",
          "type": "bool"
        }
      ],
      "stateMutability": "view",
      "type": "function"
    },
    {
      "inputs": [
        {
          "internalType": "address",
          "name": "",
          "type": "address"
        }
      ],
      "name": "isInvestor",
      "outputs": [
        {
          "internalType": "bool",
          "name": "",
          "type": "bool"
        }
      ],
      "stateMutability": "view",
      "type": "function"
    },
    {
      "inputs": [],
      "name": "manager",
      "outputs": [
        {
          "internalType": "address",
          "name": "",
          "type": "address"
        }
      ],
      "stateMutability": "view",
      "type": "function"
    },
    {
      "inputs": [
        {
          "internalType": "address",
          "name": "",
          "type": "address"
        }
      ],
      "name": "noOfShares",
      "outputs": [
        {
          "internalType": "uint256",
          "name": "",
          "type": "uint256"
        }
      ],
      "stateMutability": "view",
      "type": "function"
    },
    {
      "inputs": [],
      "name": "participationTimeEnd",
      "outputs": [
        {
          "internalType": "uint256",
          "name": "",
          "type": "uint256"
        }
      ],
      "stateMutability": "view",
      "type": "function"
    },
    {
      "inputs": [],
      "name": "quorum",
      "outputs": [
        {
          "internalType": "uint256",
          "name": "",
          "type": "uint256"
        }
      ],
      "stateMutability": "view",
      "type": "function"
    },
    {
      "inputs": [],
      "name": "totalFund",
      "outputs": [
        {
          "internalType": "uint256",
          "name": "",
          "type": "uint256"
        }
      ],
      "stateMutability": "view",
      "type": "function"
    },
    {
      "inputs": [],
      "name": "voteTime",
      "outputs": [
        {
          "internalType": "uint256",
          "name": "",
          "type": "uint256"
        }
      ],
      "stateMutability": "view",
      "type": "function"
    },
    {
      "inputs": [
        {
          "internalType": "address",
          "name": "",
          "type": "address"
        }
      ],
      "name": "withdrawStatus",
      "outputs": [
        {
          "internalType": "bool",
          "name": "",
          "type": "bool"
        }
      ],
      "stateMutability": "view",
      "type": "function"
    },
    {
      "inputs": [],
      "name": "invest",
      "outputs": [],
      "stateMutability": "payable",
      "type": "function"
    },
    {
      "inputs": [
        {
          "internalType": "string",
          "name": "_description",
          "type": "string"
        },
        {
          "internalType": "uint256",
          "name": "_amount",
          "type": "uint256"
        },
        {
          "internalType": "address payable",
          "name": "_reciepent",
          "type": "address"
        }
      ],
      "name": "createProposal",
      "outputs": [],
      "stateMutability": "nonpayable",
      "type": "function"
    },
    {
      "inputs": [
        {
          "internalType": "uint256",
          "name": "amount",
          "type": "uint256"
        }
      ],
      "name": "redeem",
      "outputs": [],
      "stateMutability": "nonpayable",
      "type": "function"
    },
    {
      "inputs": [
        {
          "internalType": "uint256",
          "name": "value",
          "type": "uint256"
        },
        {
          "internalType": "address",
          "name": "_to",
          "type": "address"
        }
      ],
      "name": "shareTransfer",
      "outputs": [],
      "stateMutability": "nonpayable",
      "type": "function"
    },
    {
      "inputs": [
        {
          "internalType": "uint256",
          "name": "id",
          "type": "uint256"
        }
      ],
      "name": "vote",
      "outputs": [],
      "stateMutability": "nonpayable",
      "type": "function"
    },
    {
      "inputs": [
        {
          "internalType": "uint256",
          "name": "id",
          "type": "uint256"
        }
      ],
      "name": "executeProposal",
      "outputs": [],
      "stateMutability": "nonpayable",
      "type": "function"
    },
    {
      "inputs": [
        {
          "internalType": "address",
          "name": "to",
          "type": "address"
        }
      ],
      "name": "allow",
      "outputs": [],
      "stateMutability": "nonpayable",
      "type": "function"
    },
    {
      "inputs": [],
      "name": "withdraw",
      "outputs": [],
      "stateMutability": "nonpayable",
      "type": "function"
    },
    {
      "inputs": [],
      "name": "proposalList",
      "outputs": [
        {
          "components": [
            {
              "internalType": "uint256",
              "name": "id",
              "type": "uint256"
            },
            {
              "internalType": "string",
              "name": "description",
              "type": "string"
            },
            {
              "internalType": "uint256",
              "name": "amount",
              "type": "uint256"
            },
            {
              "internalType": "address payable",
              "name": "recipient",
              "type": "address"
            },
            {
              "internalType": "uint256",
              "name": "votes",
              "type": "uint256"
            },
            {
              "internalType": "uint256",
              "name": "end",
              "type": "uint256"
            },
            {
              "internalType": "bool",
              "name": "isExecuted",
              "type": "bool"
            }
          ],
          "internalType": "struct organisation.Proposal[]",
          "name": "",
          "type": "tuple[]"
        }
      ],
      "stateMutability": "view",
      "type": "function"
    }
  ],
  "bytecode": "0x608060405260016007553480156200001657600080fd5b5060405162002de238038062002de283398181016040528101906200003c9190620000e8565b33600860006101000a81548173ffffffffffffffffffffffffffffffffffffffff021916908373ffffffffffffffffffffffffffffffffffffffff16021790555082600681905550814262000092919062000173565b60058190555080600081905550505050620001d0565b600080fd5b6000819050919050565b620000c281620000ad565b8114620000ce57600080fd5b50565b600081519050620000e281620000b7565b92915050565b600080600060608486031215620001045762000103620000a8565b5b60006200011486828701620000d1565b93505060206200012786828701620000d1565b92505060406200013a86828701620000d1565b9150509250925092565b7f4e487b7100000000000000000000000000000000000000000000000000000000600052601160045260246000fd5b60006200018082620000ad565b91506200018d83620000ad565b9250827fffffffffffffffffffffffffffffffffffffffffffffffffffffffffffffffff03821115620001c557620001c462000144565b5b828201905092915050565b612c0280620001e06000396000f3fe60806040526004361061011f5760003560e01c80639b46f764116100a0578063db006a7511610064578063db006a75146103db578063df01febc14610404578063e8b5e51f14610441578063f168e7c41461044b578063ff9913e8146104765761011f565b80639b46f764146102c8578063af5ae87614610305578063bcf93dd614610330578063cee2a9cf1461035b578063d2958371146103985761011f565b80633ccfd60b116100e75780633ccfd60b146102095780634438952414610220578063481c6a751461024b5780636ac1e01f146102765780636f13db391461029f5761011f565b80630121b93f146101245780630d61b5191461014d578063100aca47146101765780631703a018146101a157806323549db5146101cc575b600080fd5b34801561013057600080fd5b5061014b60048036038101906101469190611bce565b61049f565b005b34801561015957600080fd5b50610174600480360381019061016f9190611bce565b610770565b005b34801561018257600080fd5b5061018b6109cf565b6040516101989190611c0a565b60405180910390f35b3480156101ad57600080fd5b506101b66109d5565b6040516101c39190611c0a565b60405180910390f35b3480156101d857600080fd5b506101f360048036038101906101ee9190611c83565b6109db565b6040516102009190611cde565b60405180910390f35b34801561021557600080fd5b5061021e610a0a565b005b34801561022c57600080fd5b50610235610ca1565b6040516102429190611f2f565b60405180910390f35b34801561025757600080fd5b50610260610e4b565b60405161026d9190611f60565b60405180910390f35b34801561028257600080fd5b5061029d6004803603810190610298919061200c565b610e71565b005b3480156102ab57600080fd5b506102c660048036038101906102c19190612080565b611086565b005b3480156102d457600080fd5b506102ef60048036038101906102ea91906120c0565b611344565b6040516102fc9190611c0a565b60405180910390f35b34801561031157600080fd5b5061031a61135c565b6040516103279190611c0a565b60405180910390f35b34801561033c57600080fd5b50610345611362565b6040516103529190611c0a565b60405180910390f35b34801561036757600080fd5b50610382600480360381019061037d91906120c0565b611368565b60405161038f9190611cde565b60405180910390f35b3480156103a457600080fd5b506103bf60048036038101906103ba9190611bce565b611388565b6040516103d29796959493929190612146565b60405180910390f35b3480156103e757600080fd5b5061040260048036038101906103fd9190611bce565b61147f565b005b34801561041057600080fd5b5061042b600480360381019061042691906120c0565b61170e565b6040516104389190611cde565b60405180910390f35b61044961172e565b005b34801561045757600080fd5b50610460611898565b60405161046d9190611c0a565b60405180910390f35b34801561048257600080fd5b5061049d600480360381019061049891906120c0565b61189e565b005b60011515600360003373ffffffffffffffffffffffffffffffffffffffff1673ffffffffffffffffffffffffffffffffffffffff16815260200190815260200160002060009054906101000a900460ff16151514610532576040517f08c379a000000000000000000000000000000000000000000000000000000000815260040161052990612208565b60405180910390fd5b600015156009600083815260200190815260200160002060060160009054906101000a900460ff1615151461059c576040517f08c379a00000000000000000000000000000000000000000000000000000000081526004016105939061229a565b60405180910390fd5b426009600083815260200190815260200160002060050154116105f4576040517f08c379a00000000000000000000000000000000000000000000000000000000081526004016105eb9061232c565b60405180910390fd5b60001515600a60003373ffffffffffffffffffffffffffffffffffffffff1673ffffffffffffffffffffffffffffffffffffffff168152602001908152602001600020600083815260200190815260200160002060009054906101000a900460ff16151514610698576040517f08c379a000000000000000000000000000000000000000000000000000000000815260040161068f90612398565b60405180910390fd5b600460003373ffffffffffffffffffffffffffffffffffffffff1673ffffffffffffffffffffffffffffffffffffffff168152602001908152602001600020546009600083815260200190815260200160002060040160008282546106fd91906123e7565b925050819055506001600a60003373ffffffffffffffffffffffffffffffffffffffff1673ffffffffffffffffffffffffffffffffffffffff168152602001908152602001600020600083815260200190815260200160002060006101000a81548160ff02191690831515021790555050565b600860009054906101000a900473ffffffffffffffffffffffffffffffffffffffff1673ffffffffffffffffffffffffffffffffffffffff163373ffffffffffffffffffffffffffffffffffffffff1614610800576040517f08c379a00000000000000000000000000000000000000000000000000000000081526004016107f790612489565b60405180910390fd5b60006009600083815260200190815260200160002090506006546001546064836004015461082e91906124a9565b6108389190612532565b11610878576040517f08c379a000000000000000000000000000000000000000000000000000000000815260040161086f906125d5565b60405180910390fd5b806005015442116108be576040517f08c379a00000000000000000000000000000000000000000000000000000000081526004016108b590612641565b60405180910390fd5b80600201546002541015610907576040517f08c379a00000000000000000000000000000000000000000000000000000000081526004016108fe906126ad565b60405180910390fd5b600015158160060160009054906101000a900460ff1615151461095f576040517f08c379a000000000000000000000000000000000000000000000000000000000815260040161095690612719565b60405180910390fd5b8060020154600260008282546109759190612739565b9250508190555060018160060160006101000a81548160ff0219169083151502179055506109cb8160030160009054906101000a900473ffffffffffffffffffffffffffffffffffffffff168260020154611aa0565b5050565b60015481565b60065481565b600a6020528160005260406000206020528060005260406000206000915091509054906101000a900460ff1681565b60011515600360003373ffffffffffffffffffffffffffffffffffffffff1673ffffffffffffffffffffffffffffffffffffffff16815260200190815260200160002060009054906101000a900460ff16151514610a9d576040517f08c379a0000000000000000000000000000000000000000000000000000000008152600401610a9490612208565b60405180910390fd5b60011515600b60003373ffffffffffffffffffffffffffffffffffffffff1673ffffffffffffffffffffffffffffffffffffffff16815260200190815260200160002060009054906101000a900460ff16151514610b30576040517f08c379a0000000000000000000000000000000000000000000000000000000008152600401610b27906127b9565b60405180910390fd5b600254600460003373ffffffffffffffffffffffffffffffffffffffff1673ffffffffffffffffffffffffffffffffffffffff1681526020019081526020016000205410610bb3576040517f08c379a0000000000000000000000000000000000000000000000000000000008152600401610baa90612825565b60405180910390fd5b6000600360003373ffffffffffffffffffffffffffffffffffffffff1673ffffffffffffffffffffffffffffffffffffffff16815260200190815260200160002060006101000a81548160ff0219169083151502179055506000600460003373ffffffffffffffffffffffffffffffffffffffff1673ffffffffffffffffffffffffffffffffffffffff1681526020019081526020016000205490506000600460003373ffffffffffffffffffffffffffffffffffffffff1673ffffffffffffffffffffffffffffffffffffffff16815260200190815260200160002081905550610c9e3382611aa0565b50565b60608060005b6001600754610cb69190612739565b811015610e435760096000600183610cce91906123e7565b81526020019081526020016000206040518060e001604052908160008201548152602001600182018054610d0190612874565b80601f0160208091040260200160405190810160405280929190818152602001828054610d2d90612874565b8015610d7a5780601f10610d4f57610100808354040283529160200191610d7a565b820191906000526020600020905b815481529060010190602001808311610d5d57829003601f168201915b50505050508152602001600282015481526020016003820160009054906101000a900473ffffffffffffffffffffffffffffffffffffffff1673ffffffffffffffffffffffffffffffffffffffff1673ffffffffffffffffffffffffffffffffffffffff16815260200160048201548152602001600582015481526020016006820160009054906101000a900460ff161515151581525050828281518110610e2557610e246128a6565b5b60200260200101819052508080610e3b906128d5565b915050610ca7565b819250505090565b600860009054906101000a900473ffffffffffffffffffffffffffffffffffffffff1681565b60011515600360003373ffffffffffffffffffffffffffffffffffffffff1673ffffffffffffffffffffffffffffffffffffffff16815260200190815260200160002060009054906101000a900460ff16151514610f04576040517f08c379a0000000000000000000000000000000000000000000000000000000008152600401610efb90612208565b60405180910390fd5b6040518060e00160405280600754815260200185858080601f016020809104026020016040519081016040528093929190818152602001838380828437600081840152601f19601f8201169050808301925050505050505081526020018381526020018273ffffffffffffffffffffffffffffffffffffffff1681526020016000815260200160005442610f9891906123e7565b815260200160001515815250600960006007548152602001908152602001600020600082015181600001556020820151816001019080519060200190610fdf929190611aeb565b506040820151816002015560608201518160030160006101000a81548173ffffffffffffffffffffffffffffffffffffffff021916908373ffffffffffffffffffffffffffffffffffffffff1602179055506080820151816004015560a0820151816005015560c08201518160060160006101000a81548160ff0219169083151502179055509050506007600081548092919061107b906128d5565b919050555050505050565b60011515600360003373ffffffffffffffffffffffffffffffffffffffff1673ffffffffffffffffffffffffffffffffffffffff16815260200190815260200160002060009054906101000a900460ff16151514611119576040517f08c379a000000000000000000000000000000000000000000000000000000000815260040161111090612208565b60405180910390fd5b81600460003373ffffffffffffffffffffffffffffffffffffffff1673ffffffffffffffffffffffffffffffffffffffff16815260200190815260200160002054101561119b576040517f08c379a00000000000000000000000000000000000000000000000000000000081526004016111929061296a565b60405180910390fd5b6001600360008373ffffffffffffffffffffffffffffffffffffffff1673ffffffffffffffffffffffffffffffffffffffff16815260200190815260200160002060006101000a81548160ff02191690831515021790555081600460008373ffffffffffffffffffffffffffffffffffffffff1673ffffffffffffffffffffffffffffffffffffffff168152602001908152602001600020600082825461124291906123e7565b9250508190555081600460003373ffffffffffffffffffffffffffffffffffffffff1673ffffffffffffffffffffffffffffffffffffffff16815260200190815260200160002060008282546112989190612739565b925050819055506000600460003373ffffffffffffffffffffffffffffffffffffffff1673ffffffffffffffffffffffffffffffffffffffff168152602001908152602001600020541415611340576000600360003373ffffffffffffffffffffffffffffffffffffffff1673ffffffffffffffffffffffffffffffffffffffff16815260200190815260200160002060006101000a81548160ff0219169083151502179055505b5050565b60046020528060005260406000206000915090505481565b60025481565b60005481565b60036020528060005260406000206000915054906101000a900460ff1681565b60096020528060005260406000206000915090508060000154908060010180546113b190612874565b80601f01602080910402602001604051908101604052809291908181526020018280546113dd90612874565b801561142a5780601f106113ff5761010080835404028352916020019161142a565b820191906000526020600020905b81548152906001019060200180831161140d57829003601f168201915b5050505050908060020154908060030160009054906101000a900473ffffffffffffffffffffffffffffffffffffffff16908060040154908060050154908060060160009054906101000a900460ff16905087565b60011515600360003373ffffffffffffffffffffffffffffffffffffffff1673ffffffffffffffffffffffffffffffffffffffff16815260200190815260200160002060009054906101000a900460ff16151514611512576040517f08c379a000000000000000000000000000000000000000000000000000000000815260040161150990612208565b60405180910390fd5b80600460003373ffffffffffffffffffffffffffffffffffffffff1673ffffffffffffffffffffffffffffffffffffffff168152602001908152602001600020541015611594576040517f08c379a000000000000000000000000000000000000000000000000000000000815260040161158b9061296a565b60405180910390fd5b80600254116115d8576040517f08c379a00000000000000000000000000000000000000000000000000000000081526004016115cf906129d6565b60405180910390fd5b80600260008282546115ea9190612739565b9250508190555080600460003373ffffffffffffffffffffffffffffffffffffffff1673ffffffffffffffffffffffffffffffffffffffff16815260200190815260200160002060008282546116409190612739565b9250508190555080600160008282546116599190612739565b925050819055506000600460003373ffffffffffffffffffffffffffffffffffffffff1673ffffffffffffffffffffffffffffffffffffffff168152602001908152602001600020541415611701576000600360003373ffffffffffffffffffffffffffffffffffffffff1673ffffffffffffffffffffffffffffffffffffffff16815260200190815260200160002060006101000a81548160ff0219169083151502179055505b61170b3382611aa0565b50565b600b6020528060005260406000206000915054906101000a900460ff1681565b4260055411611772576040517f08c379a000000000000000000000000000000000000000000000000000000000815260040161176990612a42565b60405180910390fd5b60003414156117b6576040517f08c379a00000000000000000000000000000000000000000000000000000000081526004016117ad90612aae565b60405180910390fd5b34600460003373ffffffffffffffffffffffffffffffffffffffff1673ffffffffffffffffffffffffffffffffffffffff168152602001908152602001600020600082825461180591906123e7565b925050819055506001600360003373ffffffffffffffffffffffffffffffffffffffff1673ffffffffffffffffffffffffffffffffffffffff16815260200190815260200160002060006101000a81548160ff021916908315150217905550346001600082825461187691906123e7565b92505081905550346002600082825461188f91906123e7565b92505081905550565b60055481565b600860009054906101000a900473ffffffffffffffffffffffffffffffffffffffff1673ffffffffffffffffffffffffffffffffffffffff163373ffffffffffffffffffffffffffffffffffffffff161461192e576040517f08c379a000000000000000000000000000000000000000000000000000000000815260040161192590612489565b60405180910390fd5b60011515600360008373ffffffffffffffffffffffffffffffffffffffff1673ffffffffffffffffffffffffffffffffffffffff16815260200190815260200160002060009054906101000a900460ff161515146119c1576040517f08c379a00000000000000000000000000000000000000000000000000000000081526004016119b890612b1a565b60405180910390fd5b600254600460008373ffffffffffffffffffffffffffffffffffffffff1673ffffffffffffffffffffffffffffffffffffffff168152602001908152602001600020541115611a45576040517f08c379a0000000000000000000000000000000000000000000000000000000008152600401611a3c90612bac565b60405180910390fd5b6001600b60008373ffffffffffffffffffffffffffffffffffffffff1673ffffffffffffffffffffffffffffffffffffffff16815260200190815260200160002060006101000a81548160ff02191690831515021790555050565b8173ffffffffffffffffffffffffffffffffffffffff166108fc829081150290604051600060405180830381858888f19350505050158015611ae6573d6000803e3d6000fd5b505050565b828054611af790612874565b90600052602060002090601f016020900481019282611b195760008555611b60565b82601f10611b3257805160ff1916838001178555611b60565b82800160010185558215611b60579182015b82811115611b5f578251825591602001919060010190611b44565b5b509050611b6d9190611b71565b5090565b5b80821115611b8a576000816000905550600101611b72565b5090565b600080fd5b600080fd5b6000819050919050565b611bab81611b98565b8114611bb657600080fd5b50565b600081359050611bc881611ba2565b92915050565b600060208284031215611be457611be3611b8e565b5b6000611bf284828501611bb9565b91505092915050565b611c0481611b98565b82525050565b6000602082019050611c1f6000830184611bfb565b92915050565b600073ffffffffffffffffffffffffffffffffffffffff82169050919050565b6000611c5082611c25565b9050919050565b611c6081611c45565b8114611c6b57600080fd5b50565b600081359050611c7d81611c57565b92915050565b60008060408385031215611c9a57611c99611b8e565b5b6000611ca885828601611c6e565b9250506020611cb985828601611bb9565b9150509250929050565b60008115159050919050565b611cd881611cc3565b82525050565b6000602082019050611cf36000830184611ccf565b92915050565b600081519050919050565b600082825260208201905092915050565b6000819050602082019050919050565b611d2e81611b98565b82525050565b600081519050919050565b600082825260208201905092915050565b60005b83811015611d6e578082015181840152602081019050611d53565b83811115611d7d576000848401525b50505050565b6000601f19601f8301169050919050565b6000611d9f82611d34565b611da98185611d3f565b9350611db9818560208601611d50565b611dc281611d83565b840191505092915050565b6000611dd882611c25565b9050919050565b611de881611dcd565b82525050565b611df781611cc3565b82525050565b600060e083016000830151611e156000860182611d25565b5060208301518482036020860152611e2d8282611d94565b9150506040830151611e426040860182611d25565b506060830151611e556060860182611ddf565b506080830151611e686080860182611d25565b5060a0830151611e7b60a0860182611d25565b5060c0830151611e8e60c0860182611dee565b508091505092915050565b6000611ea58383611dfd565b905092915050565b6000602082019050919050565b6000611ec582611cf9565b611ecf8185611d04565b935083602082028501611ee185611d15565b8060005b85811015611f1d5784840389528151611efe8582611e99565b9450611f0983611ead565b925060208a01995050600181019050611ee5565b50829750879550505050505092915050565b60006020820190508181036000830152611f498184611eba565b905092915050565b611f5a81611c45565b82525050565b6000602082019050611f756000830184611f51565b92915050565b600080fd5b600080fd5b600080fd5b60008083601f840112611fa057611f9f611f7b565b5b8235905067ffffffffffffffff811115611fbd57611fbc611f80565b5b602083019150836001820283011115611fd957611fd8611f85565b5b9250929050565b611fe981611dcd565b8114611ff457600080fd5b50565b60008135905061200681611fe0565b92915050565b6000806000806060858703121561202657612025611b8e565b5b600085013567ffffffffffffffff81111561204457612043611b93565b5b61205087828801611f8a565b9450945050602061206387828801611bb9565b925050604061207487828801611ff7565b91505092959194509250565b6000806040838503121561209757612096611b8e565b5b60006120a585828601611bb9565b92505060206120b685828601611c6e565b9150509250929050565b6000602082840312156120d6576120d5611b8e565b5b60006120e484828501611c6e565b91505092915050565b600082825260208201905092915050565b600061210982611d34565b61211381856120ed565b9350612123818560208601611d50565b61212c81611d83565b840191505092915050565b61214081611dcd565b82525050565b600060e08201905061215b600083018a611bfb565b818103602083015261216d81896120fe565b905061217c6040830188611bfb565b6121896060830187612137565b6121966080830186611bfb565b6121a360a0830185611bfb565b6121b060c0830184611ccf565b98975050505050505050565b7f796f7520617265206e6f7420616e20696e766573746f72000000000000000000600082015250565b60006121f26017836120ed565b91506121fd826121bc565b602082019050919050565b60006020820190508181036000830152612221816121e5565b9050919050565b7f70726f706f73616c20616c726561647920686173206265656e2065786563757460008201527f6564000000000000000000000000000000000000000000000000000000000000602082015250565b60006122846022836120ed565b915061228f82612228565b604082019050919050565b600060208201905081810360008301526122b381612277565b9050919050565b7f74696d65206973206f76657220746f20766f746520746869732070726f706f7360008201527f616c000000000000000000000000000000000000000000000000000000000000602082015250565b60006123166022836120ed565b9150612321826122ba565b604082019050919050565b6000602082019050818103600083015261234581612309565b9050919050565b7f796f75206861766520616c726561647920766f74656400000000000000000000600082015250565b60006123826016836120ed565b915061238d8261234c565b602082019050919050565b600060208201905081810360008301526123b181612375565b9050919050565b7f4e487b7100000000000000000000000000000000000000000000000000000000600052601160045260246000fd5b60006123f282611b98565b91506123fd83611b98565b9250827fffffffffffffffffffffffffffffffffffffffffffffffffffffffffffffffff03821115612432576124316123b8565b5b828201905092915050565b7f796f7520617265206e6f742061206d616e616765720000000000000000000000600082015250565b60006124736015836120ed565b915061247e8261243d565b602082019050919050565b600060208201905081810360008301526124a281612466565b9050919050565b60006124b482611b98565b91506124bf83611b98565b9250817fffffffffffffffffffffffffffffffffffffffffffffffffffffffffffffffff04831182151516156124f8576124f76123b8565b5b828202905092915050565b7f4e487b7100000000000000000000000000000000000000000000000000000000600052601260045260246000fd5b600061253d82611b98565b915061254883611b98565b92508261255857612557612503565b5b828204905092915050565b7f766f746573206973206e6f7420656e6f75676820746f2065786563757465207460008201527f6869732070726f706f73616c0000000000000000000000000000000000000000602082015250565b60006125bf602c836120ed565b91506125ca82612563565b604082019050919050565b600060208201905081810360008301526125ee816125b2565b9050919050565b7f74696d65206973206c65667420666f7220766f74696e67000000000000000000600082015250565b600061262b6017836120ed565b9150612636826125f5565b602082019050919050565b6000602082019050818103600083015261265a8161261e565b9050919050565b7f6e6f7420656e6f7567682066756e642077652068617665200000000000000000600082015250565b60006126976018836120ed565b91506126a282612661565b602082019050919050565b600060208201905081810360008301526126c68161268a565b9050919050565b7f616c726561647920657865637574656400000000000000000000000000000000600082015250565b60006127036010836120ed565b915061270e826126cd565b602082019050919050565b60006020820190508181036000830152612732816126f6565b9050919050565b600061274482611b98565b915061274f83611b98565b925082821015612762576127616123b8565b5b828203905092915050565b7f796f752063616e206e6f74206c65617665000000000000000000000000000000600082015250565b60006127a36011836120ed565b91506127ae8261276d565b602082019050919050565b600060208201905081810360008301526127d281612796565b9050919050565b7f776520646f6e2774206861766520656e6f7567682066756e6400000000000000600082015250565b600061280f6019836120ed565b915061281a826127d9565b602082019050919050565b6000602082019050818103600083015261283e81612802565b9050919050565b7f4e487b7100000000000000000000000000000000000000000000000000000000600052602260045260246000fd5b6000600282049050600182168061288c57607f821691505b602082108114156128a05761289f612845565b5b50919050565b7f4e487b7100000000000000000000000000000000000000000000000000000000600052603260045260246000fd5b60006128e082611b98565b91507fffffffffffffffffffffffffffffffffffffffffffffffffffffffffffffffff821415612913576129126123b8565b5b600182019050919050565b7f796f7520646f6e2774206861766520656e6f7567682073686172657300000000600082015250565b6000612954601c836120ed565b915061295f8261291e565b602082019050919050565b6000602082019050818103600083015261298381612947565b9050919050565b7f736f72727920776520646f6e2774206861766520656e6f756768206d6f6e6579600082015250565b60006129c06020836120ed565b91506129cb8261298a565b602082019050919050565b600060208201905081810360008301526129ef816129b3565b9050919050565b7f74696d65206973206f76657220746f20626520616e20696e766573746f720000600082015250565b6000612a2c601e836120ed565b9150612a37826129f6565b602082019050919050565b60006020820190508181036000830152612a5b81612a1f565b9050919050565b7f6769766520757320616d6f6f6e74000000000000000000000000000000000000600082015250565b6000612a98600e836120ed565b9150612aa382612a62565b602082019050919050565b60006020820190508181036000830152612ac781612a8b565b9050919050565b7f6865206973206e6f7420696e766573746f720000000000000000000000000000600082015250565b6000612b046012836120ed565b9150612b0f82612ace565b602082019050919050565b60006020820190508181036000830152612b3381612af7565b9050919050565b7f686973207368617265206973206d6f7265207468616e20617661696c6162652060008201527f66756e6400000000000000000000000000000000000000000000000000000000602082015250565b6000612b966024836120ed565b9150612ba182612b3a565b604082019050919050565b60006020820190508181036000830152612bc581612b89565b905091905056fea2646970667358221220827946f1f6737bf460e8c18dadba6c023b6eaa0a428d2aa8d1421478bd0136b364736f6c634300080b0033",
  "immutableReferences": {},
  "source": "// SPDX-License-Identifier: GPL-3.0\r\npragma solidity >0.5.0 <0.9.0;\r\n\r\ncontract organisation{\r\n\r\n    struct Proposal{\r\n        uint id;\r\n        string description;\r\n        uint amount;\r\n        address payable recipient;\r\n        uint votes;\r\n        uint end;\r\n        bool isExecuted;\r\n    }\r\n    \r\n    uint public voteTime;\r\n    uint public totalFund;\r\n    uint public avaliableFund;\r\n    mapping (address=> bool) public isInvestor;\r\n    mapping (address=> uint ) public noOfShares;\r\n    uint public participationTimeEnd;\r\n    uint public quorum;\r\n    uint nextpr_id=1;\r\n    address public manager;\r\n    mapping(uint=> Proposal) public infoProposals;\r\n    mapping (address=> mapping (uint => bool)) public investorVoting;\r\n    mapping (address=>bool) public withdrawStatus;\r\n\r\n    constructor(uint _quorum, uint _participationTimeEnd, uint _voteTime){\r\n        manager=msg.sender;\r\n        quorum=_quorum;\r\n        participationTimeEnd=block.timestamp+_participationTimeEnd;\r\n        voteTime=_voteTime;\r\n    }\r\n\r\n    modifier onlyInvestor(){\r\n        require(isInvestor[msg.sender]==true,\"you are not an investor\");\r\n        _;\r\n    }\r\n\r\n    modifier onlyManager(){\r\n        require(msg.sender==manager,\"you are not a manager\");\r\n        _;\r\n    }\r\n\r\n    function invest() public payable {\r\n        require(participationTimeEnd>block.timestamp,\"time is over to be an investor\");\r\n        \r\n        require(msg.value!=0, \"give us amoont\");\r\n        noOfShares[msg.sender]+=msg.value;\r\n        isInvestor[msg.sender]=true;\r\n        totalFund+=msg.value;\r\n        avaliableFund+=msg.value;\r\n\r\n    }\r\n\r\n    function createProposal(string calldata _description, uint _amount, address payable _reciepent) external onlyInvestor(){\r\n\r\n        infoProposals[nextpr_id]=Proposal(nextpr_id,_description,_amount,_reciepent,0,block.timestamp+voteTime,false);\r\n        \r\n        nextpr_id++;\r\n    }\r\n\r\n    function redeem(uint amount) public onlyInvestor(){\r\n        require(noOfShares[msg.sender]>=amount,\"you don't have enough shares\");\r\n        require(avaliableFund>amount,\"sorry we don't have enough money\");\r\n        avaliableFund-=amount;\r\n        noOfShares[msg.sender]-=amount;\r\n        totalFund-=amount;\r\n        if(noOfShares[msg.sender]==0){\r\n           isInvestor[msg.sender]=false;\r\n       }\r\n        send(payable(msg.sender), amount);\r\n       \r\n\r\n    }\r\n\r\n   function shareTransfer(uint value,address _to) public onlyInvestor(){\r\n       require(noOfShares[msg.sender]>=value,\"you don't have enough shares\");\r\n       isInvestor[_to]=true;\r\n       noOfShares[_to]+=value;\r\n       noOfShares[msg.sender]-=value;\r\n       if(noOfShares[msg.sender]==0){\r\n           isInvestor[msg.sender]=false;\r\n       }\r\n    }\r\n\r\n\r\n    function vote(uint id) public onlyInvestor(){\r\n          require(infoProposals[id].isExecuted==false,\"proposal already has been executed\");\r\n        require(infoProposals[id].end>block.timestamp,\"time is over to vote this proposal\");\r\n        require(investorVoting[msg.sender][id]==false, \"you have already voted\");\r\n      \r\n        infoProposals[id].votes+=noOfShares[msg.sender];\r\n        investorVoting[msg.sender][id]=true;\r\n\r\n\r\n    }\r\n\r\n\r\n    function executeProposal(uint id) public onlyManager(){\r\n        Proposal storage p= infoProposals[id];\r\n        require(p.votes*100/totalFund>quorum,\"votes is not enough to execute this proposal\");\r\n        require(block.timestamp>p.end, \"time is left for voting\");\r\n        require(avaliableFund>=p.amount, \"not enough fund we have \");\r\n        require(p.isExecuted==false,\"already executed\");\r\n        avaliableFund-=p.amount;\r\n        p.isExecuted=true;\r\n\r\n        send(p.recipient,p.amount);\r\n\r\n    }\r\n\r\n    function send(address payable a, uint amount) internal{\r\n\r\n        payable(a).transfer(amount);\r\n\r\n    }\r\n    function allow(address to) public onlyManager(){\r\n        require(isInvestor[to]==true,\"he is not investor\");\r\n        require(noOfShares[to]<=avaliableFund,\"his share is more than availabe fund\");\r\n        withdrawStatus[to]=true;\r\n    }\r\n\r\n    function withdraw() public onlyInvestor(){\r\n        require(withdrawStatus[msg.sender]==true,\"you can not leave\");\r\n        require(noOfShares[msg.sender]<avaliableFund,\"we don't have enough fund\");\r\n        isInvestor[msg.sender]=false;\r\n        uint amount=noOfShares[msg.sender];\r\n        noOfShares[msg.sender]=0;\r\n        send(payable(msg.sender),amount);\r\n    }\r\n\r\n    function proposalList()public view returns(Proposal [] memory ){\r\n        Proposal [] memory array;\r\n        uint i;\r\n        for(i=0; i<nextpr_id-1; i++){\r\n            array[i]=infoProposals[i+1];\r\n        }\r\n        return array;\r\n    }\r\n   \r\n}",
  "sourcePath": "C:\\Users\\BANGLADESH\\Desktop\\DAO organisation\\DAOstarter\\contracts\\dao.sol",
  "compiler": {
    "name": "solc",
    "version": "0.8.11+commit.d7f03943.Emscripten.clang"
  },
  "schemaVersion": "3.4.11",
  "updatedAt": "2023-02-11T08:46:59.415Z",
  "devdoc": {
    "kind": "dev",
    "methods": {},
    "version": 1
  },
  "userdoc": {
    "kind": "user",
    "methods": {},
    "version": 1
  }
}